:020000040000FA
:060000008A110A12052816
:08000800090034202E208316AC
:10001000031306148312031306180A28A001A00A6A
:100020002008F7004920A1002008F7007720A2004F
:100030002108A8002208A9003230A600A701E82064
:1000400020302002031C0F280A28630025280C30CA
:10005000F000F00B2928F50B27280800831603135E
:100060000711831203130800831603139F138312CF
:1000700003131F10831603178801890183120317C6
:100080008813871383120313850186018701890171
:10009000080021307702031800347708563EF70035
:1000A00000300318013E8A007708820020342A3489
:1000B000EE34B834EE342A3400342A342A34EE34A0
:1000C0000034EE340034EE342A3493340034933464
:1000D0002A34EE34B834EE342A3400342A3400346E
:1000E0002A34EE340034EE342A34EE34B83421307D
:1000F0007702031800347708843EF70000300318B5
:10010000013E8A0077088200003402340134013451
:100110000134023400340234023401340034013436
:100120000034013402340234003402340234013425
:100130000134013402340034023400340234013416
:1001400000340134023401340134F00175087902BD
:10015000031D080076087A02031D0800F009080054
:100160007508F7007608F8007908FB007A08FC00AB
:10017000F201F3017B08F5007C08F600F901FA01B1
:10018000A520701CC628F501F60108001030F40007
:100190000310F70DF80DF20DF30D7B08F2027C0849
:1001A000031C7C0FF30277140318DD2877107B08FB
:1001B000F2077C0803187C0FF307F40BC8287708B4
:1001C000F5007808F6007208F0007308F1000800E6
:1001D0002808F5002908F600F901FA01A520701891
:1001E00008005030F500C330F6002808F90029084F
:1001F000FA00B0207508AE007608AF002808F500B8
:100200002908F6006430F900FA01B0207508A8004A
:100210007608A9000130AA00AB010130AC00AD01A5
:1002200007152E08F500272007112E08F5002720B6
:100230002C082802A3002908A4002D08031C2D0F58
:10024000A4022308F5002408F600F901FA01A5200C
:10025000F009701C2F29AC0A0319AD0A10292A08CD
:100260002602A3002708A4002B08031C2B0FA402BE
:100270002308F5002408F600F901FA01A520F00989
:0E028000701C4629AA0A0319AB0A0D290800B2
:02400E00D22FAF
:02401000FF3F70
:00000001FF
