:100000000C94A8020C94D9020C94D9020C94D90235
:100010000C94D9020C94D9020C94D9020C94D902F4
:100020000C94D9020C94D9020C94D9020C94D902E4
:100030000C94D9020C94D9020C94D9020C94D902D4
:100040000C94D9020C94D9020C94D9020C94D902C4
:100050000C94D9020C94D9020C94D9020C9458092E
:100060000C94D9020C9422090C94F8080C94D9022F
:100070000C94D9020C94D9020C94D9020C94D90294
:100080000C94D9020C94D9020C94D9020C94D90284
:100090000C94D9020C94D9020C94D9020C94D90274
:1000A0000C94D9020C94D9020C94D9020C94D90264
:1000B0000C94D9020C94D9020C94D9020C94D90254
:1000C0000C94D9020C94D9020C94D9020C94D90244
:1000D0000C94D9020C94D9020C94D9020C94D90234
:1000E0000C94D9020C9413030C94AA040C949C0451
:1000F0000C944F030C9499050C9463030C948004A6
:100100000C948A040C9471030C94A9030C946F044E
:100110000C946B040C9498040C94A6040C9477042F
:100120000C9492040C9498050C9484040C94400351
:100130000C9465040C94E7090C948E040C94A504AB
:100140000C94A0040C947A040C949F070C947304F0
:100150000C94F60300407A10F35A00A0724E18096E
:100160000010A5D4E80000E87648170000E40B541E
:10017000020000CA9A3B000000E1F50500008096ED
:100180009800000040420F000000A086010000001F
:10019000102700000000E8030000000064000000D9
:1001A00000000A00000000000100000000002C76A2
:1001B000D888DC674F0823DFC1DFAE59E1B1B796BD
:1001C000E5E3E453C63AE651997696E8E6C284261A
:1001D000EB898C9B62ED407C6FFCEFBC9C9F40F2F6
:1001E000BAA56FA5F490055A2AF75C936B6CF96772
:1001F0006DC11BFCE0E40D47FEF520E6B500D0ED37
:10020000902E0300943577050080841E080000209E
:100210004E0A000000C80C333333330F986E12833C
:100220001141EF8D2114893BE65516CFFEE6DB1810
:10023000D1844B381BF77C1D901DA4BBE4242032D5
:1002400084725E228100C9F124ECA1E53D27000003
:1002500000000000005F00000007000700147F148A
:100260007F14242A7F2A12231308646236495522F8
:10027000500005030000001C2241000041221C0028
:1002800014083E081408083E080800503000000812
:1002900008080808006060000020100804023E51B1
:1002A00049453E00427F4000426151494621414557
:1002B0004B311814127F1027454545393C4A4949AE
:1002C0003001710905033649494936064949291E55
:1002D0000036360000005636000008142241001493
:1002E0001414141400412214080201510906324961
:1002F00079413E7E1111117E7F494949363E414187
:1003000041227F4141221C7F494949417F09090916
:10031000013E4149497A7F0808087F00417F41003A
:100320002040413F017F081422417F404040407FF0
:10033000020C027F7F0408107F3E4141413E7F094D
:100340000909063E4151215E7F091929464649495E
:10035000493101017F01013F4040403F1F204020C3
:100360001F3F4038403F63140814630708700807B4
:100370006151494543007F414100020408102000BB
:1003800041417F000402010204404040404000011E
:1003900002040020545454787F484444383844447C
:1003A0004420384444487F3854545418087E090186
:1003B000020C5252523E7F0804047800447D4000F3
:1003C0002040443D007F1028440000417F40007CD5
:1003D000041804787C0804047838444444387C14B5
:1003E000141408081414187C7C0804040848545495
:1003F0005420043F4440203C4040207C1C204020AE
:100400001C3C4030403C44281028440C5050503C88
:100410004464544C44000836410000007F00000052
:100420004136080010080810080000000000000015
:100430002100240027002A002D0030003300010194
:100440000000040107010A01000022002500280025
:100450002B002E00310034000201000005010801CC
:100460000B0100000A0B02090C0D0E080703040122
:10047000000000000000000000000000000000007C
:100480000000000000000000000000000000121149
:10049000100000000000000000000000000000004C
:1004A00000000000000000000000200023002600E3
:1004B00029002C002F00320000010000030106017A
:1004C00009010505050507050808080802020202DA
:1004D0000A0A0808040404040101010101010101E0
:1004E0000303030303030303040707070C0C0C0CAB
:1004F0000C0C0C0C02020202060606060606060694
:100500000B0B0B0B0B0B0B0B010210202008081020
:100510002040102040800201020108040201010273
:10052000040810204080804020100804020180044C
:1005300002018040201008040201080402010102A7
:100540000408102040800102040810204080E709C0
:1005500011241FBECFEFD1E2DEBFCDBF00E00CBF44
:1005600024E0A8EFB2E001C01D92A738B207E1F77E
:1005700012E0A0E0B2E0EEEBF0E300E00BBF02C05F
:1005800007900D92A83FB107D9F712E0C8EAD2E070
:1005900000E006C021970109802FFE010E942B1662
:1005A000C73AD10780E00807A9F70E94470A0C94D0
:1005B0005D180C940000CF92DF92EF92FF92CF93E0
:1005C000DF93B0917704A0E08111AB2F8091780484
:1005D00090E0880F991FAC0148555B4FC0907D0497
:1005E000D0907E04E0907F04F090800430E020E022
:1005F000FA01C591D491E881B90190E080E0EB2344
:10060000EA130AC02F5F3F4F6C157D058E059F05CD
:1006100078F36FEF7FEFCB01DF91CF91FF90EF90F9
:10062000DF90CF900895AF92BF92CF92DF92EF927A
:10063000FF920F931F93CF93DF936C017B018B018C
:10064000040F151FEB015E01AE18BF08C017D107DC
:1006500059F06991D601ED91FC910190F081E02D66
:10066000C6011995892B79F7C501DF91CF911F91AB
:100670000F91FF90EF90DF90CF90BF90AF900895D3
:10068000FC01538D448D252F30E0842F90E0821B98
:10069000930B541710F0CF96089501970895FC011D
:1006A000918D828D981761F0A28DAE0FBF2FB11D75
:1006B0005D968C91928D9F5F9F73928F90E00895CD
:1006C0008FEF9FEF0895FC01918D828D981731F087
:1006D000828DE80FF11D858D90E008958FEF9FEFDB
:1006E0000895FC01918D228D892F90E0805C9F4FB1
:1006F000821B91098F739927089584E893E00E94E3
:10070000710321E0892B09F420E0822F0895FC0178
:10071000A48DA80FB92FB11DA35ABF4F2C91848D62
:1007200090E001968F739927848FA689B7892C93BF
:10073000A089B1898C91837080648C93938D848D12
:10074000981306C00288F389E02D80818F7D808315
:100750000895EF92FF920F931F93CF93DF93EC01D5
:1007600081E0888F9B8D8C8D98131AC0E889F98958
:10077000808185FF15C09FB7F894EE89FF8960835B
:10078000E889F98980818370806480839FBF81E0DC
:1007900090E0DF91CF911F910F91FF90EF9008951E
:1007A000F62E0B8D10E00F5F1F4F0F731127E02EF9
:1007B0008C8D8E110CC00FB607FCFACFE889F98931
:1007C000808185FFF5CFCE010E948703F1CFEB8DAD
:1007D000EC0FFD2FF11DE35AFF4FF0829FB7F89405
:1007E0000B8FEA89FB8980818062CFCFCF93DF9323
:1007F000EC01888D8823B9F0AA89BB89E889F98939
:100800008C9185FD03C0808186FD0DC00FB607FC6D
:10081000F7CF8C9185FFF2CF808185FFEDCFCE01A0
:100820000E948703E9CFDF91CF91089580E090E0A7
:10083000892B29F00E947D0381110E94000080E035
:1008400090E0892B49F080E090E0892B29F00E940C
:10085000000081110E94000080E090E0892B49F0A7
:1008600080E090E0892B29F00E94000081110E9415
:10087000000080E090E0892B49F080E090E0892B37
:1008800029F00E94000081110C940000089581500D
:10089000823108F05AC0E82FF0E08827ED5AFB4F6C
:1008A0008F4F0C942B167304770465046B046F044C
:1008B000A5047A04800484048A048E0492049804B3
:1008C0009C04A504A004A604AA04809180008F774C
:1008D000809380000895809180008F7DF9CF809172
:1008E0008000877FF5CF84B58F7784BD089584B568
:1008F0008F7DFBCF8091B0008F778093B0000895FB
:100900008091B0008F7DF9CF809190008F77809398
:1009100090000895809190008F7DF9CF8091900094
:10092000877FF5CF8091A0008F778093A0000895F6
:100930008091A0008F7DF9CF8091A000877FF5CFB7
:10094000809120018F77809320010895809120016C
:100950008F7DF9CF80912001877FF5CF1F93CF93B3
:10096000DF93282F30E0F901EE59FB4F8491F90114
:10097000E85FFA4FD491F901EE53FB4FC491CC23B9
:10098000A9F0162F81110E944704EC2FF0E0EE0F22
:10099000FF1FE85BFB4FA591B4918FB7F894EC91E2
:1009A000111108C0D095DE23DC938FBFDF91CF916A
:1009B0001F910895DE2BF8CFCF93DF9390E0FC01D9
:1009C000E85FFA4F24918E539B4FFC01849188235A
:1009D000C9F090E0880F991FFC01E25DFB4FA591E3
:1009E000B491FC01E85BFB4FC591D49161110DC03E
:1009F0009FB7F8948C91209582238C93888128232B
:100A000028839FBFDF91CF910895623051F49FB743
:100A1000F8943C91822F809583238C93E8812E2B30
:100A2000EFCF8FB7F894EC912E2B2C938FBFEACF9A
:100A3000863308F0865320917B00982F9870277F8B
:100A4000922B90937B008770806480937C008091D0
:100A50007A00806480937A0080917A0086FDFCCFD2
:100A6000809178009091790008953FB7F894809133
:100A7000FD029091FE02A091FF02B091000326B505
:100A8000A89B05C02F3F19F00196A11DB11D3FBFC6
:100A9000BA2FA92F982F8827BC01CD01620F711D95
:100AA000811D911D42E0660F771F881F991F4A958F
:100AB000D1F708958F929F92AF92BF92CF92DF921B
:100AC000EF92FF924B015C010E9435056B017C01A6
:100AD0000E9435056C197D098E099F09683E734097
:100AE00081059105A8F321E0821A9108A108B108B7
:100AF00088EEC80E83E0D81EE11CF11C811491041D
:100B0000A104B10429F7FF90EF90DF90CF90BF9040
:100B1000AF909F908F9008952FB7F8946091F9024D
:100B20007091FA028091FB029091FC022FBF089510
:100B3000089590E080E00895EF92FF920F931F9345
:100B4000CF93DF93EC01042F8E810E94AE0460E00E
:100B500088850E94AE04FC80ED8018E0602F661F3F
:100B60006627661F8E2D0E94AE04000F61E08F2D58
:100B70000E94AE0460E08F2D0E94AE04115071F708
:100B800061E08885DF91CF911F910F91FF90EF90E9
:100B90000C94AE04CF93DF93C1E2D4E01C8690E0C6
:100BA0006B8529E3629F612D1124669570E06F5F6C
:100BB0007F4F0E94F5158D8740E860E0CE010E94CE
:100BC0009C054D85406460E0CE01DF91CF910C948F
:100BD0009C05CF93DF9380E00E94CA05D0E0C0E07F
:100BE00080912C0486958695869590912B04899FFB
:100BF000C0011124C817D90740F440E061E081E248
:100C000094E00E949C052196EBCF80E0DF91CF918C
:100C10000C94CA05FB0101900020E9F73197AF0160
:100C2000461B570BDC01ED91FC910280F381E02D16
:100C300019948F929F92AF92BF920F931F93CF936D
:100C4000DF93CDB7DEB7A1970FB6F894DEBF0FBE26
:100C5000CDBF19A2423008F44AE08E010F5D1F4F4C
:100C6000842E912CB12CA12CA50194010E9409166F
:100C7000E62FB901CA01EA3004F5E05DD801EE9330
:100C80008D01232B242B252B79F790E080E0109702
:100C900029F0BD0181E294E00E940A06A1960FB6F8
:100CA000F894DEBF0FBECDBFDF91CF911F910F91A2
:100CB000BF90AF909F908F900895E95CDFCFCF9366
:100CC000DF93FC01448155816081718184E893E068
:100CD0000E941303EC016BE772E084E893E00E944A
:100CE0000A068C0F9D1FDF91CF9108950F931F93DC
:100CF000CF93DF93EC0188819981009759F02A8185
:100D00003B812617370730F081E0DF91CF911F91AB
:100D10000F9108958B016F5F7F4F0E946C170097B2
:100D200059F0998388831B830A832C813D81232B6F
:100D300059F7FC011082E8CF80E0E7CFEF92FF92F5
:100D40000F931F93CF93DF936115710541F480E0FA
:100D5000DF91CF911F910F91FF90EF900895411572
:100D60005105B1F07B01EC010C811D81040F151FB1
:100D7000B8010E947606882351F3288139818C813D
:100D80009D81B701820F931F0E9456181D830C830B
:100D900081E0DECFCF93DF93EC01888199810097CA
:100DA00011F00E94E316198218821D821C821B8298
:100DB0001A82DF91CF910895EF92FF920F931F93C4
:100DC000CF93DF93EC017B01198218821B821A8278
:100DD0001D821C82FB0101900020E9F731978F01F1
:100DE000061B170BB8010E947606811109C0CE01BF
:100DF000DF91CF911F910F91FF90EF900C94CA0655
:100E00001D830C83B70188819981DF91CF911F9158
:100E10000F91FF90EF900C945618EF92FF920F9362
:100E20001F93CF93DF938C017B01EB01099000208E
:100E3000E9F72197C61BD70BBE010E9476068111E8
:100E400009C0C801DF91CF911F910F91FF90EF90E2
:100E50000C94CA06F801D583C483B70180819181BF
:100E6000DF91CF911F910F91FF90EF900C94561846
:100E7000EF92FF920F931F93CF93DF93CDB7DEB71F
:100E8000A1970FB6F894DEBF0FBECDBF7C01CB019A
:100E9000BA01F70111821082138212821582148224
:100EA0008E010F5F1F4F22E044E00E94FD1000976B
:100EB00089F0BC01C7010E940D07A1960FB6F894F6
:100EC000DEBF0FBECDBFDF91CF911F910F91FF907D
:100ED000EF900895C7010E94CA06EFCFCF93DF932A
:100EE000EC01FB0101900020E9F73197AF01461BAF
:100EF000570B0E949E06811103C0CE010E94CA06B4
:100F0000CE01DF91CF910895CF93DF93EC01FB01E8
:100F100044815581608171810E949E06811103C0C8
:100F2000CE010E94CA06CE01DF91CF910895FC0147
:100F300080819181009711F00C94E3160895CF926F
:100F4000DF92EF92FF920F931F93CF93DF9300D026
:100F50001F921F92CDB7DEB767FD6BC07C01862F55
:100F600090E0603208F455C0809725E0289FB001DA
:100F7000299F700D1124625B7D4F45E050E0CE014A
:100F800001960E941B118E010F5F1F4F680185E0C3
:100F9000C80ED11CF80141918F01F701868581119E
:100FA000409561E0C7010E949C050C151D0591F755
:100FB000F7014685419561E0C7010E949C05F70154
:100FC000848590E00696628570E00E94F51584871E
:100FD000892B79F4858590E00196638529E3629FEA
:100FE000612D1124669570E06F5F7F4F0E94F515AB
:100FF000858781E090E00F900F900F900F900F90F9
:10100000DF91CF911F910F91FF90EF90DF90CF90E4
:101010000895880F991FF701E80FF91F07851089B8
:101020000115110509F0B2CF45E050E06EE472E021
:10103000A6CF90E080E0DFCF4F925F926F927F92D9
:101040008F929F92AF92BF92CF92DF92EF92FF92D8
:101050000F931F93CF936B017C01742EAC019B0106
:101060000E94F0156EE772E0811126C0460157011B
:10107000E894B7F82FEF3FEF4FE75FE7C501B40102
:101080000E94F01581110CC02FEF3FEF4FE75FE793
:10109000C501B4010E949F1362E872E0181664F063
:1010A0002FEF3FEF4FE75FE4C701B6010E94EB155A
:1010B0001816ACF466E872E081E294E0CF911F91DB
:1010C0000F91FF90EF90DF90CF90BF90AF909F90E7
:1010D0008F907F906F905F904F900C940A062FEF47
:1010E0003FEF4FE75FECC701B6010E949F1387FDFA
:1010F000E1CF20E030E0A901C701B6010E949F13B3
:1011000010E000E087FF0AC06DE281E294E00E94F7
:101110009F078C01F7FAF094F7F8F094C0E060E0D4
:1011200070E080E09FE37C1641F020E030E040E298
:1011300051E40E944A15CF5FF6CFA70196010E94A5
:10114000DE142B013C010E94BC154B015C014AE0FE
:101150000E9419067C01E00EF11ECC23C1F1C501ED
:10116000B4010E94A4139B01AC01C301B2010E940F
:10117000DD144B015C016EE281E294E00E949F0766
:10118000E80EF91EC15018F120E030E040E251E4D1
:10119000C501B4010E9405142B013C010E94BC153D
:1011A0004B01B12CA12C4AE0C501B4010E941906E3
:1011B000E80EF91EC501B4010E94A4139B01AC0105
:1011C000C301B2010E94DD144B015C01DBCFC701FA
:1011D000CF911F910F91FF90EF90DF90CF90BF9034
:1011E000AF909F908F907F906F905F904F900895F9
:1011F0001F920F920FB60F9211240BB60F922F93DE
:101200003F934F935F936F937F938F939F93AF938E
:10121000BF93EF93FF9384E893E00E948703FF91CD
:10122000EF91BF91AF919F918F917F916F915F915E
:101230004F913F912F910F900BBE0F900FBE0F90CB
:101240001F9018951F920F920FB60F9211240BB694
:101250000F922F938F939F93EF93FF93E0919403BB
:10126000F09195038081E0919A03F0919B0382FDB8
:101270001DC0908180919D038F5F8F7320919E038D
:10128000821741F0E0919D03F0E0EC57FC4F958F01
:1012900080939D03FF91EF919F918F912F910F90DC
:1012A0000BBE0F900FBE0F901F9018958081F2CF4C
:1012B0001F920F920FB60F9211242F933F938F938B
:1012C0009F93AF93BF938091F9029091FA02A091FE
:1012D000FB02B091FC023091F80223E0230F2D377E
:1012E00058F50196A11DB11D2093F8028093F902D3
:1012F0009093FA02A093FB02B093FC028091FD024E
:101300009091FE02A091FF02B09100030196A11DF1
:10131000B11D8093FD029093FE02A093FF02B09353
:101320000003BF91AF919F918F913F912F910F90AB
:101330000FBE0F901F90189526E8230F0296A11D4F
:10134000B11DD2CFCF92DF92EF92FF920F931F93F6
:10135000E82FF92F05C0015011092109310961F168
:10136000908196239417B9F305C001501109210902
:10137000310911F1908196239413F7CFC12CD12C10
:10138000E12CF12C0AC08FEFC81AD80AE80AF80A33
:101390000C151D052E053F0579F0808186238417E5
:1013A00091F36C2D7D2D8E2D9F2D1F910F91FF9010
:1013B000EF90DF90CF90089560E070E080E090E0E3
:1013C0001F910F91FF90EF90DF90CF900895E4E888
:1013D000F3E01382128288EE93E0A0E0B0E0848311
:1013E0009583A683B78381E692E09183808385EC21
:1013F00090E09587848784EC90E09787868780ECDF
:1014000090E0918B808B81EC90E0938B828B82ECCF
:1014100090E0958B848B86EC90E0978B868B118E79
:10142000128E138E148EA0E7B4E088E315968C9389
:10143000159786E116968C931697E0E4F5E0E49113
:101440001796EC931797EAEFF4E0E4911896EC9373
:10145000189740E85EE360E070E01D964D935D9361
:101460006D937C935097E1E2F4E01382128283E75C
:1014700092E09183808383E0848384E0858385E0A8
:10148000868386E0878387E0808716860895CF93DA
:10149000DF93CDB7DEB7C055D1400FB6F894DEBFAD
:1014A0000FBECDBF789484B5826084BD84B5816061
:1014B00084BD85B5826085BD85B5816085BD80911F
:1014C0006E00816080936E00109281008091810097
:1014D000826080938100809181008160809381008F
:1014E000809180008160809380008091B100846051
:1014F0008093B1008091B00081608093B0008091B2
:10150000910082608093910080919100816080932E
:101510009100809190008160809390008091A10063
:1015200082608093A1008091A10081608093A100DE
:101530008091A00081608093A00080912101826051
:10154000809321018091210181608093210180910C
:10155000200181608093200180917A0084608093D3
:101560007A0080917A00826080937A0080917A007C
:10157000816080937A0080917A00806880937A00FD
:101580001092C100E0919403F091950382E0808372
:10159000E0919003F09191031082E0919203F09119
:1015A00093038FEC808310929C03E0919803F09159
:1015B000990386E08083E0919603F0919703808100
:1015C00080618083E0919603F09197038081886029
:1015D0008083E0919603F0919703808180688083F7
:1015E000E0919603F091970380818F7D808360E086
:1015F00089E30E94DC0461E08CE00E94DC0460E08E
:101600008BE00E94DC0462E0809175040E94DC049F
:101610000E948C05605D774081099109609379048F
:1016200070937A0480937B0490937C0487E3809387
:10163000820460E088E00E94DC0484E580932B044F
:1016400080E380932C0410922A0410922D041092AF
:101650002E04E0E3F4E080E4DF011D928A95E9F7CF
:1016600061E0809125040E94DC0461E08091260401
:101670000E94DC0461E0809127040E94DC0461E0A8
:10168000809128040E94DC0461E0809129040E947A
:10169000DC0461E0809128040E94AE0461E0809146
:1016A00029040E94AE0460E0809128040E94AE04E8
:1016B00064E670E080E090E00E945A0561E080916D
:1016C00028040E94AE0441E260E081E294E00E94BE
:1016D0009C0543E160E081E294E00E949C058091DA
:1016E0002A0442EC813039F440EE60E081E294E07B
:1016F0000E949C0545E060E081E294E00E949C0528
:1017000040E260E081E294E00E949C0549E060E0F4
:1017100081E294E00E949C050E94E90548E060E0B7
:1017200081E294E00E949C054CE060E081E294E05C
:101730000E949C0564E670E080E090E00E945A05FB
:1017400040E860E081E294E00E949C0540E460E0B3
:1017500081E294E00E949C0586E092E0909333043D
:10176000809332040E94E9057E01BFEBEB1ABEEFC5
:10177000FB0A5BE2252E51E1352E89E30E94180514
:10178000BC01990F880B990B0E94A6132AE038E23E
:1017900040EA5BE30E9405142B013C0120E030E0AD
:1017A0004AE754E40E940514C35BDE4F68837983E3
:1017B0008A839B83CD54D140A301920160E070E005
:1017C00080EA90E40E94DD149B01AC01C35BDE4F14
:1017D000688179818A819B81CD54D1400E944A15CC
:1017E0002B013C0120E030E046E953E40E949F13C6
:1017F00018160CF0DCC020E030E046E953E4C301E9
:10180000B2010E94EB15181654F420E030E84BEBBF
:1018100054E4C301B2010E949F1387FDCFC020E0B2
:1018200030E84BEB54E4C301B2010E94EB1587FD95
:101830000AC020E030E44CE156E4C301B2010E944A
:101840009F1387FDC2C020E030E44CE156E4C301A1
:10185000B2010E94EB1587FD0AC020E038EB48E892
:1018600057E4C301B2010E949F1387FDB5C020E079
:1018700038EB48E857E4C301B2010E94EB1587FD3D
:101880000AC020E03CE742E159E4C301B2010E94F2
:101890009F1387FDA8C020E03CE742E159E4C30163
:1018A000B2010E94EB1587FD07C04DEC842E4CEC75
:1018B000942EA92C4DE3B42E809280039092810344
:1018C000A0928203B092830360E08CE00E94AE0499
:1018D00083E090E00197F1F761E08CE00E94AE04B4
:1018E00083E290E00197F1F760E08CE00E94AE04A3
:1018F00060E08BE00E94DC04E3E1F5E06491EDEC54
:10190000F4E08491E82FF0E0EE0FFF1FE855FB4F65
:101910008591949100E412E42FE030E0462F0E947C
:10192000A209611571058105910529F06F5F7F4F4F
:101930008F4F9F4F9F700E94A41320E030E040E043
:101940005FE30E94051428E23EE74CE05DE30E945D
:10195000051460937C0370937D0380937E039093C2
:101960007F0360ED77E080E090E00E945A050E94DE
:101970008C050091790410917A0420917B043091B8
:101980007C042B013C01401A510A620A730A93013C
:101990008201003D17402105310560F580918104E9
:1019A0008111EEC060E070E080EC9FE71BC1812CEC
:1019B000912C3AE7A32E34E4B32E7ECF812C912CC8
:1019C00028E4A22E22E4B22E77CF812C912C98EC21
:1019D000A92E92E4B92E70CF812C912C80E2A82EF2
:1019E00081E4B82E69CF812C912C00E8A02E0FE362
:1019F000B02E62CF6093790470937A0480937B0455
:101A000090937C04109274041092730410927204E8
:101A1000109271041092700462E0809175040E942B
:101A2000DC0461E070E080E090E00E945A0561E033
:101A3000809175040E94DC0460E0809175040E942E
:101A4000AE04809176048551823010F5C101019772
:101A5000F1F762E0809175040E94DC0480918204B9
:101A600090E08230910538F0880F991F880F991FF8
:101A700005970197F1F7F89480E00E94DB026F3F31
:101A80007F4F8F4F9F4F59F41092810478948ACFE3
:101A900064E170E080E090E00E945A05DACF81E0D6
:101AA0000E94DB026F3F7F4F8F4F9F4F69F3FE0114
:101AB00031966F018F0180E00E94DB02D8016D93A7
:101AC0007D938D939C93139781E00E94DB02F80134
:101AD0006483758386839783085F1F4FE016F10642
:101AE00051F7789490E080E0D6010D911D912D91F1
:101AF0003C91139714964D915D916D917C91179740
:101B00000F3FBFEF1B072B073B0731F04F3FEFEFB6
:101B10005E076E077E0719F41092810443CFFC0123
:101B2000A3E0F595E795AA95E1F7E059FB4FA08171
:101B3000AA0F041715072607370708F402C3A08366
:101B40000196F8E0CF0ED11C8832910569F64091DC
:101B500074042091700480917104280F3327331F7F
:101B600080917204280F311D80917304820F932F8E
:101B7000911D99274817190679F681E08093810411
:101B8000809176048C3009F4F8C208F0DCC28B3006
:101B900009F008CF6091720470E090E080E00E944C
:101BA000A4132B013C011091730417FF0AC0AC0170
:101BB0009B0160E070E080E89FEB0E94DD142B0148
:101BC0003C011F70612F70E090E080E00E94A6133E
:101BD0002DEC3CEC4CEC5DE30E940514A30192015A
:101BE0000E94DE14609378037093790380937A03E4
:101BF00090937B030E94BC15162F6093770387E3B5
:101C00000E9418059C01A8E8B3E10E94CE149B0134
:101C1000AC016AE056954795379527956A95D1F7B7
:101C200044275527E12FF0E0EE0FFF1FE55FFD4F42
:101C3000A081B1810E94C31443E2149F900111243A
:101C40002B523D4F50E040E00E940916C90168EE5A
:101C500073E00E94F515709376036093750380918D
:101C60006D0381110DC00E948C0560936903709310
:101C70006A0380936B0390936C0381E080936D0300
:101C80008091610381110DC00E948C0560935D03FA
:101C900070935E0380935F039093600381E0809371
:101CA00061030E948C050091690310916A032091E1
:101CB0006B0330916C03601B710B820B930B6531CE
:101CC00071058105910508F47CC000915B031091BA
:101CD0005C0368018FEFC81AD80AD0925C03C092E7
:101CE0005B0386E30E941805000F111FF801E55FF2
:101CF000FC4F9183808398E2C916D10421F410929D
:101D00005C0310925B0300910B0310910C03809114
:101D10000D0390910E03081719072CF0502F412F37
:101D20008C01852F942FEFE0F3E02BE5C22E23E00A
:101D3000D22E412C512C3201419151914017510723
:101D40000CF03BC2012E000C220B330B400E511E37
:101D5000621E731E8A01CE16DF0671F7C301B2013F
:101D60000E94A61320E030E048E152E40E944A15A8
:101D700020E030E040EA50E40E94051420E030EC1E
:101D80004FE754E40E944A1520E030E040E650E47A
:101D90000E94051420E030E0A9010E94DE14609347
:101DA0000703709308038093090390930A030E942A
:101DB0008C056093690370936A0380936B0390931F
:101DC0006C038091070390910803A0910903B091DF
:101DD0000A038093030390930403A0930503B09335
:101DE0000603EAE6F4E08491E0E1F5E01491EAEC20
:101DF000F4E00491002309F4F6C181110E94470424
:101E0000E02FF0E0EE0FFF1FE855FB4FA591B491D6
:101E1000EC911E2391E080E009F490E0092F182F47
:101E200010930203009301030E94E905013011059C
:101E300009F0DCC140E260E081E294E00E949C0590
:101E400080E00E94CA056AE872E081E294E00E94A4
:101E50000A066091800370918103809182039091C2
:101E6000830342E00E941C086FE872E081E294E084
:101E70000E940A0681E00E94CA0564E972E081E2DC
:101E800094E00E940A0660917C0370917D0380912A
:101E90007E0390917F0342E00E941C086DE972E08E
:101EA00081E294E00E940A0682E00E94CA0560EA8C
:101EB00072E081E294E00E940A06609178037091DA
:101EC000790380917A0390917B0341E00E941C0882
:101ED00066EA72E081E294E00E940A0683E00E94D2
:101EE000CA0569EA72E081E294E00E940A06609104
:101EF00075037091760390E080E04AE00E94190635
:101F00006FEA72E081E294E00E940A0684E00E9497
:101F1000CA0564EB72E081E294E00E940A066091D7
:101F2000030370910403809105039091060342E03E
:101F30000E941C0868EB7BE080E090E00E945A055C
:101F40000E948C0500915D0310915E0320915F0358
:101F500030916003601B710B820B930B613D7740E6
:101F60008105910508F4EAC04091800350918103F6
:101F70006091820370918303CE0101960E9438071D
:101F800068EB72E0C7010E94DC06BE016F5F7F4F05
:101F9000C7010E94840760E972E00E946E070E94F8
:101FA0005F06C7010E949707CE0101960E9497071E
:101FB00040917C0350917D0360917E0370917F037B
:101FC000CE0101960E94380765EC72E0C7010E94BD
:101FD000DC06BE016F5F7F4FC7010E9484076DE979
:101FE00072E00E946E070E945F06C7010E94970779
:101FF000CE0101960E9497071A8219821C821B82C9
:102000001E821D8280EBF70180831182B701CE0111
:1020100001960E940D0740917803509179036091D9
:102020007A0370917B03C7010E94380765ED72E067
:10203000CE01895B9E4F0E94DC06B701CE01895B11
:102040009E4F0E948407BE016F5F7F4F0E948407EE
:1020500067EA72E00E946E070E945F06CE01895B0C
:102060009E4F0E949707C7010E949707CE010196D5
:102070000E9497078091750390917603D70111967E
:102080001C921E9213961C921E92129715961C92E9
:102090001E9214974AE0BE016F5F7F4F0E94241189
:1020A000BE016F5F7F4FC7010E940D0763EE72E0B4
:1020B000CE0101960E94DC06B701CE0101960E9476
:1020C00084076FEA72E00E946E070E945F06CE01ED
:1020D00001960E949707C7010E9497074091070346
:1020E000509108036091090370910A03CE01019693
:1020F0000E9438076DEE72E0C7010E94DC06BE0147
:102100006F5F7F4FC7010E9484070E945F06C7016F
:102110000E949707CE0101960E9497076BE772E035
:1021200084E893E00E940A060E948C0560935D0398
:1021300070935E0380935F03909360030E94160484
:102140001CCBA160FCCC8551823008F02BCC1091C7
:102150007204612F70E0762F662766277F77809163
:102160007304682B90E080E00E94A4132DEC3CECFB
:102170004CEC5DE30E9405141CC010917204612FA9
:1021800070E090E080E00E94A4132B013C0160917C
:1021900073046F7070E090E080E00E94A6132DEC55
:1021A0003CEC4CEC5DE30E940514A30192010E94FB
:1021B000DE1417FF17CD905815CD8417950754F4EA
:1021C000092E000CAA0BBB0B480E591E6A1E7B1E63
:1021D000CA01C1CD052E000C660B770B440E551EAF
:1021E000661E771EB8CD10E000E01ACE44E260E033
:1021F00081E294E00E949C059DCEEF920F931F9385
:10220000CF93DF93E80134E047FD34E1042E000C66
:10221000550B57FF03C0519541955109E32E022FED
:10222000242FAE010E943E11CE01DF91CF911F916C
:102230000F91EF900895FB01DC0102C005900D9213
:1022400041505040D8F70895BB27FB015527AA27D6
:10225000880F991FAA1FA41710F0A41B8395505133
:10226000B9F7A05DAA3308F0A95DA193009779F7AB
:10227000B111B1931192CB010C948F138F929F9255
:10228000AF92BF92CF92DF92EF92FF920F931F9384
:10229000CF93DF9300D000D000D0CDB7DEB76A0176
:1022A000F22EB02E102FFBE3AF2EA01608F41BE386
:1022B0001F5F012F27E0AE014F5F5F4F0E94B712F3
:1022C000BC018981982F9970913009F44EC09BE22E
:1022D000E1FC04C09E2D9170E0FC49C05E2D507160
:1022E000E82FE87083FF55C084E0911101C083E0BE
:1022F000EF2DE81B8F1508F0E0E0D6018E2F20E2CD
:102300005523C9F1992329F0D6019C93C601019662
:102310006C0196012D5F3F4FE2FE33C08EE4D60183
:102320008C9391E411969C93119712968C93D901FA
:102330008E2F90E281112AC0E20FF32FF11D10823F
:102340008EEF9FEF29960FB6F894DEBF0FBECDBF7C
:10235000DF91CF911F910F91FF90EF90DF90CF9081
:10236000BF90AF909F908F9008959DE2B7CF90E27D
:10237000B5CF2D9381508111FCCFCE0ED11CE0E062
:10238000C1CF8EE6D6018C9391E6CCCF9D93815040
:10239000D1CF482F447082FF3DC084E0911101C02D
:1023A00083E08F1510F4EF2DE81BD6018E2F20E26D
:1023B000552309F1992329F0D6019C93C601019672
:1023C0006C0196012D5F3F4FE2FE1BC089E4D601F0
:1023D0008C938EE411968C93119786E412968C93CD
:1023E000D9018E2F90E2882309F4A6CF9D938150C6
:1023F000FACF2D9381508111FCCFCE0ED11CE0E09D
:10240000D9CF89E6D6018C938EE611968C931197DD
:1024100086E6E4CF9B0177FF02C030E020E0A1E038
:10242000B0E0911102C0B0E0A0E0F9013196AE0F2A
:10243000BF1F8B2C912CBB2009F461C05401EFEF1E
:10244000AE1ABE0AAA0DBB1DFA161B0619F014F02F
:102450004F2D4A1B511188C0E3FC59C07601A42FAF
:10246000B0E2A1114FC0C40ED11C992309F45BC086
:1024700040E0D6011196F60190836D01552309F4D1
:1024800048C0012F060F9A81582F507184FF03C056
:10249000913309F4015010160CF047C0093008F0D0
:1024A00008E0EEE2FE2E5B01A01AB10885019194CE
:1024B000819491082F3F320729F4D601FC92F6014E
:1024C00031966F016217730794F1021713077CF5B9
:1024D000DB01A21BB30BAA24A394B12CAC0EBD1E2E
:1024E000AA0DBB1D11968C9121503109D601119670
:1024F00028153905F4F0F60180836D01DBCFB12C8E
:10250000A12CA0CFF701B1937F01A150AACF9111C7
:10251000B0CFD601942F50E302C05D93915091113A
:10252000FCCFC40ED11C40E0ACCF01E0BACF80E3B9
:10253000DBCF6217730731F4963388F4953311F4C7
:10254000552369F0F6018083FD01842F90E281110B
:1025500008C0A40FB11D1C9290E080E0F3CE81E38F
:10256000F1CF91938150F3CF911183CF8ACF28304F
:1025700008F027E03327DA01990F311D87FD9160BC
:1025800000966105710539F432602E5F3D9330E3AA
:102590002A95E1F708959F3F30F080387105610575
:1025A00009F03C5F3C5F3D93913008F08068911DDD
:1025B000DF93CF931F930F93FF92EF92192F987F82
:1025C0009695E92F96959695E90FFF27E255FE4FD0
:1025D00099273327EE24FF24A701E70105900894EB
:1025E000079428F4360FE71EF81E491F511D660F89
:1025F000771F881F991F0694A1F70590079428F468
:10260000E70EF81E491F561FC11D770F881F991F1F
:10261000661F0694A1F70590079428F4F80E491F49
:10262000561FC71FD11D880F991F661F771F06945D
:10263000A1F70590079420F4490F561FC71FD81F14
:10264000990F661F771F881F0694A9F7849110952C
:10265000177041F0D695C79557954795F794E7942D
:102660001A95C1F7E4E5F1E068941590159135915C
:102670006591959105907FE27395E118F10A430BFE
:10268000560BC90BD009C0F7E10CF11E431F561FB2
:10269000C91FD01D7EF4703311F48A95E6CFE894FB
:1026A000015030F0080F0AF40027021708F4202F19
:1026B0002395022F7A3328F079E37D932A95E9F761
:1026C00010C07D932A9589F606949795679537955E
:1026D00017951794E118F10A430B560BC90BD00953
:1026E00098F023957E9173957A3308F070E37C938C
:1026F0002013B8F77E9170617D9330F0839571E37C
:102700007D9370E32A95E1F71124EF90FF900F91EC
:102710001F91CF91DF91992787FD90950895DC0156
:10272000FC01672F71917723E1F7329704C07C9108
:102730006D9370836291AE17BF07C8F308950E942E
:10274000E11308F481E00895E89409C097FB3EF492
:1027500090958095709561957F4F8F4F9F4F9923EE
:10276000A9F0F92F96E9BB279395F695879577956C
:102770006795B795F111F8CFFAF4BB0F11F460FF2C
:102780001BC06F5F7F4F8F4F9F4F16C0882311F084
:1027900096E911C0772321F09EE8872F762F05C098
:1027A000662371F096E8862F70E060E02AF09A9533
:1027B000660F771F881FDAF7880F9695879597F928
:1027C0000895990F0008550FAA0BE0E8FEEF1616C2
:1027D0001706E807F907C0F012161306E407F50715
:1027E00098F0621B730B840B950B39F40A2661F089
:1027F000232B242B252B21F408950A2609F4A1402C
:10280000A6958FEF811D811D08950E9418140C94C8
:1028100089140E947B1438F00E94821420F09523C2
:1028200011F00C9472140C94781411240C94BD14AF
:102830000E949A1470F3959FC1F3950F50E0551FB5
:10284000629FF001729FBB27F00DB11D639FAA2705
:10285000F00DB11DAA1F649F6627B00DA11D661F54
:10286000829F2227B00DA11D621F739FB00DA11D75
:10287000621F839FA00D611D221F749F3327A00D2F
:10288000611D231F849F600D211D822F762F6A2FCB
:1028900011249F5750409AF0F1F088234AF0EE0F30
:1028A000FF1FBB1F661F771F881F91505040A9F75D
:1028B0009E3F510580F00C9472140C94BD145F3F40
:1028C000E4F3983ED4F3869577956795B795F79599
:1028D000E7959F5FC1F7FE2B880F911D9695879511
:1028E00097F9089597F99F6780E870E060E0089590
:1028F0009FEF80EC089500240A9416161706180618
:102900000906089500240A941216130614060506F3
:102910000895092E0394000C11F4882352F0BB0F84
:1029200040F4BF2B11F460FF04C06F5F7F4F8F4FE7
:102930009F4F089557FD9058440F551F59F05F3F22
:1029400071F04795880F97FB991F61F09F3F79F0D1
:1029500087950895121613061406551FF2CF469553
:10296000F1DF08C0161617061806991FF1CF8695D5
:102970007105610508940895E894BB2766277727B9
:10298000CB0197F908950E94CE14A59F900DB49F96
:10299000900DA49F800D911D11240895A29FB00158
:1029A000B39FC001A39F700D811D1124911DB29F83
:1029B000700D811D1124911D08955058BB27AA2721
:1029C0000E94F5140C9489140E947B1438F00E9424
:1029D000821420F039F49F3F19F426F40C947814F3
:1029E0000EF4E095E7FB0C947214E92F0E949A1400
:1029F00058F3BA17620773078407950720F079F434
:102A0000A6F50C94BC140EF4E0950B2EBA2FA02D55
:102A10000B01B90190010C01CA01A0011124FF278B
:102A2000591B99F0593F50F4503E68F11A16F04086
:102A3000A22F232F342F4427585FF3CF4695379585
:102A40002795A795F0405395C9F77EF41F16BA0B4A
:102A5000620B730B840BBAF09150A1F0FF0FBB1FF8
:102A6000661F771F881FC2F70EC0BA0F621F731F41
:102A7000841F48F4879577956795B795F7959E3F9E
:102A800008F0B0CF9395880F08F09927EE0F97952F
:102A9000879508950E945E150C9489140E948214F3
:102AA00058F00E947B1440F029F45F3F29F00C9409
:102AB000721451110C94BD140C9478140E949A1441
:102AC00068F39923B1F3552391F3951B550BBB275D
:102AD000AA2762177307840738F09F5F5F4F220FA2
:102AE000331F441FAA1FA9F335D00E2E3AF0E0E899
:102AF00032D091505040E695001CCAF72BD0FE2FE3
:102B000029D0660F771F881FBB1F26173707480776
:102B1000AB07B0E809F0BB0B802DBF01FF2793582E
:102B20005F4F3AF09E3F510578F00C9472140C946C
:102B3000BD145F3FE4F3983ED4F38695779567958F
:102B4000B795F7959F5FC9F7880F911D9695879563
:102B500097F90895E1E0660F771F881FBB1F621782
:102B600073078407BA0720F0621B730B840BBA0B40
:102B7000EE1F88F7E09508950E94A21488F09F57F1
:102B800098F0B92F9927B751B0F0E1F0660F771F91
:102B9000881F991F1AF0BA95C9F714C0B13091F087
:102BA0000E94BC14B1E008950C94BC14672F782FD8
:102BB0008827B85F39F0B93FCCF38695779567954C
:102BC000B395D9F73EF490958095709561957F4FB8
:102BD0008F4F9F4F08950E94E11308F48FEF0895DF
:102BE0000E94E113880B990B089597FB072E16F4AA
:102BF000009407D077FD09D00E94331607FC05D05A
:102C00003EF4909581959F4F0895709561957F4F03
:102C10000895A1E21A2EAA1BBB1BFD010DC0AA1F1D
:102C2000BB1FEE1FFF1FA217B307E407F50720F035
:102C3000A21BB30BE40BF50B661F771F881F991FB0
:102C40001A9469F760957095809590959B01AC01F9
:102C5000BD01CF010895EE0FFF1F881F8BBF0790A6
:102C6000F691E02D1994AA1BBB1B51E107C0AA1FC6
:102C7000BB1FA617B70710F0A61BB70B881F991F1D
:102C80005A95A9F780959095BC01CD0108950F93B1
:102C90001F93CF93DF938230910510F482E090E090
:102CA000E0918504F091860430E020E0B0E0A0E0FF
:102CB000309799F42115310509F44AC0281B390BC6
:102CC00024303105D8F58A819B816115710589F120
:102CD000FB0193838283FE0111C0408151810281F7
:102CE000138148175907E0F04817590799F41097CE
:102CF00061F012960C93129713961C933296CF01A3
:102D0000DF91CF911F910F91089500938504109347
:102D10008604F4CF2115310551F04217530738F0DE
:102D2000A901DB019A01BD01DF01F801C1CFEF016B
:102D3000F9CF9093860480938504CDCFFE01E20FF6
:102D4000F31F819391932250310939832883D7CF80
:102D50002091830430918404232B41F420910202BA
:102D60003091030230938404209383042091000265
:102D7000309101022115310541F42DB73EB7409144
:102D8000040250910502241B350BE0918304F0915D
:102D90008404E217F307A0F42E1B3F0B2817390712
:102DA00078F0AC014E5F5F4F2417350748F04E0FA7
:102DB0005F1F5093840440938304819391939FCF2A
:102DC000F0E0E0E09CCFCF93DF930097E9F0FC01C7
:102DD000329713821282A0918504B0918604ED018E
:102DE00030E020E01097A1F420813181820F931F01
:102DF00020918304309184042817390709F061C0B9
:102E0000F0938404E0938304DF91CF910895EA0165
:102E1000CE17DF07E8F54A815B819E014115510518
:102E2000B1F7E901FB83EA8349915991C40FD51F9A
:102E3000EC17FD0761F4808191810296840F951F44
:102E4000E90199838883828193819B838A83F0E05F
:102E5000E0E012968D919C9113970097B9F52D9112
:102E60003C911197CD010296820F931F209183040C
:102E7000309184042817390739F6309751F51092AC
:102E8000860410928504B0938404A0938304BCCF7D
:102E9000D383C28340815181840F951FC817D907FE
:102EA00061F44E5F5F4F88819981480F591F5183AC
:102EB00040838A819B81938382832115310509F0A8
:102EC000B0CFF0938604E09385049ECFFD01DC0132
:102ED000C0CF13821282D7CF4F925F926F927F92B0
:102EE0008F929F92AF92BF92CF92DF92EF92FF921A
:102EF0000F931F93CF93DF938C01009799F4CB012D
:102F0000DF91CF911F910F91FF90EF90DF90CF90C5
:102F1000BF90AF909F908F907F906F905F904F90F9
:102F20000C944716FC01E60FF71F9C012250310953
:102F3000E217F30708F4AEC0D901CD91DC911197E7
:102F4000C617D70720F1C530D10578F0CE01049718
:102F50008617970750F0C61BD70B2297C193D193C2
:102F60006D937C93CF010E94E316C801DF91CF914E
:102F70001F910F91FF90EF90DF90CF90BF90AF9097
:102F80009F908F907F906F905F904F9008955B011E
:102F9000AC1ABD0A4C018C0E9D1EA0918504B09107
:102FA0008604512C412CF12CE12C109731F58091A5
:102FB0008304909184048815990509F05CC0461635
:102FC000570608F058C080910002909101020097C6
:102FD00041F48DB79EB74091040250910502841BC5
:102FE000950BE817F90708F055C0F0938404E093B7
:102FF0008304F90171836083B8CF8D919C911197FF
:1030000012966C90129713967C901397A815B90599
:1030100059F56C0142E0C40ED11CCA14DB0420F146
:10302000AC014A195B09DA011296159780F06282A9
:10303000738251834083D9016D937C93E114F10431
:1030400071F0D7011396FC93EE9312978ECF2296D0
:103050008C0F9D1FF90191838083F301EFCFF093D3
:103060008604E093850481CF4816590608F42C01A4
:103070007D01D3019ACFCB010E9447167C010097B6
:1030800049F0AE01B8010E944D18C8010E94E31634
:1030900087016BCF10E000E068CFFB01DC0102C0CC
:1030A00001900D9241505040D8F70895FB01DC018A
:0E30B00001900D920020E1F70895F894FFCFF3
:1030BE0000008704800000070507007C388C37FC71
:1030CE003580342233C43184304E2F222E0A2DFC0B
:1030DE002B022B122A22293C2860278426BC25F499
:1030EE002436247823C4221A227A21DA203A20AEFA
:1030FE001F181F8C1E0A1E881D061D841C0C1C9E6C
:10310E001B261BB81A4A1AE61982190A1900000062
:10311E0000A90313034003F60371034F0363030077
:10312E000000009F071303990598050D0A006E61B4
:10313E006E00696E66006F7666004C756D2000201D
:10314E006C7578004E2E20416775612000636D000E
:10315E0054656D7020000143004F78692E20006D7C
:10316E00672F4C00704820006C756D696E6F736927
:10317E0064616409004E6976656C2064656C20613B
:10318E00677561200054656D70657261747572614A
:10319E003A09004F786967656E6F3A0900704820EA
:0831AE0076616C75653A0900B9
:00000001FF
