:100000000C94B2010C94E3010C94E3010C94E30111
:100010000C94E3010C94E3010C94E3010C94E301D0
:100020000C94E3010C94E3010C94E3010C94E301C0
:100030000C94E3010C94E3010C94E3010C94E301B0
:100040000C94E3010C94E3010C94E3010C94E301A0
:100050000C94E3010C94E3010C94E3010C943D0631
:100060000C94E3010C9407060C94DD050C94E30159
:100070000C94E3010C94E3010C94E3010C94E30170
:100080000C94E3010C94E3010C94E3010C94E30160
:100090000C94E3010C94E3010C94E3010C94E30150
:1000A0000C94E3010C94E3010C94E3010C94E30140
:1000B0000C94E3010C94E3010C94E3010C94E30130
:1000C0000C94E3010C94E3010C94E3010C94E30120
:1000D0000C94E3010C94E3010C94E3010C94E30110
:1000E0000C94E3010C946D020C9459020C94B70328
:1000F0000C94BB030C947B020C944A020C94C9032D
:100100000C941D020C9481030C94B3020C94A7036D
:100110000C94CC060C94AD030C949C030C94A0039B
:100120000C94CD030C9498030C94BF030C94B1036E
:100130000C94C5030C94D7030C9400030C94D303C4
:100140000C9486030C94A40300407A10F35A00A088
:10015000724E18090010A5D4E80000E87648170090
:1001600000E40B54020000CA9A3B000000E1F505D0
:10017000000080969800000040420F000000A0861A
:1001800001000000102700000000E803000000004C
:100190006400000000000A000000000001000000F0
:1001A00000002C76D888DC674F0823DFC1DFAE590A
:1001B000E1B1B796E5E3E453C63AE651997696E89D
:1001C000E6C28426EB898C9B62ED407C6FFCEFBC21
:1001D0009C9F40F2BAA56FA5F490055A2AF75C934C
:1001E0006B6CF9676DC11BFCE0E40D47FEF520E682
:1001F000B500D0ED902E0300943577050080841E65
:10020000080000204E0A000000C80C333333330FBF
:10021000986E12831141EF8D2114893BE65516CF5C
:10022000FEE6DB18D1844B381BF77C1D901DA4BB68
:10023000E424203284725E228100C9F124ECA1E51D
:100240003D2700002100240027002A002D00300057
:10025000330001010000040107010A01000022002F
:10026000250028002B002E00310034000201000080
:10027000050108010B0100000A0B02090C0D0E0814
:10028000070304010000000000000000000000005F
:10029000000000000000000000000000000000005E
:1002A000000012111000000000000000000000001B
:1002B000000000000000000000000000000020001E
:1002C0002300260029002C002F003200000100002E
:1002D00003010601090105050505070508080808C9
:1002E000020202020A0A08080404040401010101CE
:1002F00001010101030303030303030304070707C9
:100300000C0C0C0C0C0C0C0C02020202060606066D
:10031000060606060B0B0B0B0B0B0B0B010210203A
:10032000200808102040102040800201020108042B
:1003300002010102040810204080804020100804BF
:100340000201800402018040201008040201080418
:10035000020101020408102040800102040810205C
:100360004080CC0611241FBECFEFD1E2DEBFCDBF4F
:1003700000E00CBF23E0ACEBB2E001C01D92A63F51
:10038000B207E1F712E0A0E0B2E0E4E6F7E200E055
:100390000BBF02C007900D92AC3BB107D9F711E03B
:1003A000C2EBD1E000E006C021970109802FFE01D9
:1003B0000E947E11C13BD10780E00807A9F70E9487
:1003C00019070C94B0130C940000CF92DF92EF92B7
:1003D000FF92CF93DF93B091E603A0E08111AB2FA2
:1003E0008091E70390E0880F991FAC0144545D4F62
:1003F000C090EC03D090ED03E090EE03F090EF039B
:1004000030E020E0FA01C591D491E881B90190E093
:1004100080E0EB23EA130AC02F5F3F4F6C157D0588
:100420008E059F0578F36FEF7FEFCB01DF91CF91C2
:10043000FF90EF90DF90CF900895AF92BF92CF9250
:10044000DF92EF92FF920F931F93CF93DF936C0194
:100450007B018B01040F151FEB015E01AE18BF0875
:10046000C017D10759F06991D601ED91FC91019027
:10047000F081E02DC6011995892B79F7C501DF912F
:10048000CF911F910F91FF90EF90DF90CF90BF9091
:10049000AF900895FC01538D448D252F30E0842FBB
:1004A00090E0821B930B541710F0CF96089501979C
:1004B0000895FC01918D828D981761F0A28DAE0F89
:1004C000BF2FB11D5D968C91928D9F5F9F73928F10
:1004D00090E008958FEF9FEF0895FC01918D828D3C
:1004E000981731F0828DE80FF11D858D90E0089509
:1004F0008FEF9FEF0895FC01918D228D892F90E061
:10050000805C9F4F821B91098F739927089582E425
:1005100093E00E947B0221E0892B09F420E0822FE6
:100520000895FC01A48DA80FB92FB11DA35ABF4F88
:100530002C91848D90E001968F739927848FA689E2
:10054000B7892C93A089B1898C91837080648C9336
:10055000938D848D981306C00288F389E02D8081E5
:100560008F7D80830895EF92FF920F931F93CF9317
:10057000DF93EC0181E0888F9B8D8C8D98131AC0DE
:10058000E889F989808185FF15C09FB7F894EE89C5
:10059000FF896083E889F989808183708064808322
:1005A0009FBF81E090E0DF91CF911F910F91FF906D
:1005B000EF900895F62E0B8D10E00F5F1F4F0F7315
:1005C0001127E02E8C8D8E110CC00FB607FCFACFD0
:1005D000E889F989808185FFF5CFCE010E949102DB
:1005E000F1CFEB8DEC0FFD2FF11DE35AFF4FF082A1
:1005F0009FB7F8940B8FEA89FB8980818062CFCF07
:10060000CF93DF93EC01888D8823B9F0AA89BB8949
:10061000E889F9898C9185FD03C0808186FD0DC034
:100620000FB607FCF7CF8C9185FFF2CF808185FF55
:10063000EDCFCE010E949102E9CFDF91CF910895D5
:1006400080E090E0892B29F00E94870281110E94AE
:10065000000080E090E0892B49F080E090E0892B59
:1006600029F00E94000081110E94000080E090E0CB
:10067000892B49F080E090E0892B29F00E9400004E
:1006800081110E94000080E090E0892B49F080E019
:1006900090E0892B29F00E94000081110C94000049
:1006A0000895282F30E0F901EA58FD4F9491F9019F
:1006B000E45EFC4F44912A523D4FF90124912223DC
:1006C00009F435C0992311F191509231F8F4E92FD2
:1006D000F0E08827E159FC4F8F4F0C947E11A00366
:1006E000A403810398039C038603A703AD03B1030E
:1006F000B703BB03BF03C503C9038603CD03D303FD
:10070000D703809180008F7780938000E22FF0E004
:10071000EE0FFF1FE45AFD4FA591B4918FB7F894E7
:10072000EC91611148C040954E234C938FBF0895C2
:10073000809180008F7DE8CF80918000877FE4CF1B
:1007400084B58F7784BDE2CF84B58F7DFBCF809158
:10075000B0008F778093B000D9CF8091B0008F7DAB
:10076000F9CF809190008F7780939000CFCF8091C8
:1007700090008F7DF9CF80919000877FF5CF809199
:10078000A0008F778093A000C1CF8091A0008F7DC3
:10079000F9CF8091A000877FF5CF809120018F77DE
:1007A00080932001B3CF809120018F7DF9CF80917C
:1007B0002001877FF5CF4E2BB8CFCF93DF9390E00A
:1007C000FC01E45EFC4F24918A529D4FFC01849110
:1007D0008823C9F090E0880F991FFC01EE5BFD4F64
:1007E000A591B491FC01E45AFD4FC591D4916111DA
:1007F0000DC09FB7F8948C91209582238C938881AB
:10080000282328839FBFDF91CF910895623051F450
:100810009FB7F8943C91822F809583238C93E88135
:100820002E2BEFCF8FB7F894EC912E2B2C938FBFFC
:10083000EACF863308F0865320917B00982F98707A
:10084000277F922B90937B008770806480937C003D
:1008500080917A00806480937A0080917A0086FD8E
:10086000FCCF809178009091790008953FB7F8947B
:100870008091C1029091C202A091C302B091C402C2
:1008800026B5A89B05C02F3F19F00196A11DB11DEB
:100890003FBFBA2FA92F982F8827BC01CD01620F27
:1008A000711D811D911D42E0660F771F881F991FE2
:1008B0004A95D1F708958F929F92AF92BF92CF92AF
:1008C000DF92EF92FF924B015C010E9436046B01B4
:1008D0007C010E9436046C197D098E099F09683ECF
:1008E000734081059105A8F321E0821A9108A108BF
:1008F000B10888EEC80E83E0D81EE11CF11C8114FB
:100900009104A104B10429F7FF90EF90DF90CF90FC
:10091000BF90AF909F908F9008952FB7F8946091FB
:10092000BD027091BE028091BF029091C0022FBFA4
:10093000089542E050E06AE672E082E493E00C94AD
:100940001D02CF93DF93FC01448155816081718149
:1009500082E493E00E941D02EC010E9499048C0F36
:100960009D1FDF91CF9108950F931F93CF93DF9336
:10097000EC0188819981009759F02A813B812617E3
:10098000370730F081E0DF91CF911F910F910895EB
:100990008B016F5F7F4F0E94BF12009759F09983C0
:1009A00088831B830A832C813D81232B59F7FC010B
:1009B0001082E8CF80E0E7CFEF92FF920F931F9372
:1009C000CF93DF936115710541F480E0DF91CF9102
:1009D0001F910F91FF90EF90089541155105B1F0CF
:1009E0007B01EC010C811D81040F151FB8010E94D1
:1009F000B404882351F3288139818C819D81B7010A
:100A0000820F931F0E94A9131D830C8381E0DECF08
:100A1000CF93DF93EC0188819981009711F00E94B8
:100A20003612198218821D821C821B821A82DF9163
:100A3000CF910895EF92FF920F931F93CF93DF937F
:100A4000EC017B01198218821B821A821D821C8292
:100A5000FB0101900020E9F731978F01061B170B6E
:100A6000B8010E94B404811109C0CE01DF91CF9179
:100A70001F910F91FF90EF900C9408051D830C833C
:100A8000B70188819981DF91CF911F910F91FF90DC
:100A9000EF900C94A913EF92FF920F931F93CF93B3
:100AA000DF938C017B01EB0109900020E9F721978E
:100AB000C61BD70BBE010E94B404811109C0C80136
:100AC000DF91CF911F910F91FF90EF900C9408054B
:100AD000F801D583C483B70180819181DF91CF91E3
:100AE0001F910F91FF90EF900C94A913EF92FF923A
:100AF0000F931F93CF93DF93CDB7DEB7A1970FB6B8
:100B0000F894DEBF0FBECDBF7C01CB01BA01F70167
:100B10001182108213821282158214828E010F5F5D
:100B20001F4F22E044E00E945E0C009789F0BC0158
:100B3000C7010E944B05A1960FB6F894DEBF0FBE09
:100B4000CDBFDF91CF911F910F91FF90EF9008954E
:100B5000C7010E940805EFCFCF93DF93EC01FB01A3
:100B600001900020E9F73197AF01461B570B0E9417
:100B7000DC04811103C0CE010E940805CE01DF9183
:100B8000CF910895CF93DF93EC01FB014481558110
:100B9000608171810E94DC04811103C0CE010E943A
:100BA0000805CE01DF91CF910895FC0180819181EC
:100BB000009711F00C94361208951F920F920FB601
:100BC0000F9211240BB60F922F933F934F935F9385
:100BD0006F937F938F939F93AF93BF93EF93FF9305
:100BE00082E493E00E949102FF91EF91BF91AF9157
:100BF0009F918F917F916F915F914F913F912F9135
:100C00000F900BBE0F900FBE0F901F9018951F9264
:100C10000F920FB60F9211240BB60F922F938F9352
:100C20009F93EF93FF93E0915203F09153038081E0
:100C3000E0915803F091590382FD1DC0908180918D
:100C40005B038F5F8F7320915C03821741F0E0910B
:100C50005B03F0E0EE5BFC4F958F80935B03FF91AD
:100C6000EF919F918F912F910F900BBE0F900FBE20
:100C70000F901F9018958081F2CF1F920F920FB6A0
:100C80000F9211242F933F938F939F93AF93BF9312
:100C90008091BD029091BE02A091BF02B091C002AE
:100CA0003091BC0223E0230F2D3758F50196A11D8A
:100CB000B11D2093BC028093BD029093BE02A0930D
:100CC000BF02B093C0028091C1029091C202A09174
:100CD000C302B091C4020196A11DB11D8093C1024F
:100CE0009093C202A093C302B093C402BF91AF918C
:100CF0009F918F913F912F910F900FBE0F901F905A
:100D0000189526E8230F0296A11DB11DD2CFCF92D0
:100D1000DF92EF92FF920F931F93E82FF92F05C0F8
:100D2000015011092109310961F19081962394172D
:100D3000B9F305C0015011092109310911F1908160
:100D400096239413F7CFC12CD12CE12CF12C0AC09F
:100D50008FEFC81AD80AE80AF80A0C151D052E05E7
:100D60003F0579F080818623841791F36C2D7D2DCA
:100D70008E2D9F2D1F910F91FF90EF90DF90CF90C0
:100D8000089560E070E080E090E01F910F91FF9087
:100D9000EF90DF90CF900895E2E4F3E013821282A7
:100DA00088EE93E0A0E0B0E084839583A683B783C8
:100DB0008CE592E09183808385EC90E09587848731
:100DC00084EC90E09787868780EC90E0918B808B15
:100DD00081EC90E0938B828B82EC90E0958B848BFE
:100DE00086EC90E0978B868B118E128E138E148E6C
:100DF000AFEDB3E088E315968C93159786E11696D0
:100E00008C931697E4E5F3E0E4911796EC9317972B
:100E1000EEE0F3E0E4911896EC93189740E85EE377
:100E200060E070E01D964D935D936D937C935097B9
:100E30000895CF93DF93CDB7DEB7C055D1400FB63D
:100E4000F894DEBF0FBECDBF789484B5826084BDB8
:100E500084B5816084BD85B5826085BD85B58160BE
:100E600085BD80916E00816080936E00109281003C
:100E700080918100826080938100809181008160F7
:100E800080938100809180008160809380008091B8
:100E9000B10084608093B1008091B0008160809344
:100EA000B0008091910082608093910080919100C8
:100EB0008160809391008091900081608093900088
:100EC0008091A10082608093A1008091A100816047
:100ED0008093A1008091A00081608093A000809108
:100EE00021018260809321018091210181608093A2
:100EF00021018091200181608093200180917A00FE
:100F0000846080937A0080917A00826080937A0076
:100F100080917A00816080937A0080917A00806865
:100F200080937A001092C100E0915203F091530334
:100F300082E08083E0914E03F0914F031082E091B4
:100F40005003F09151038FEC808310925A03E0918B
:100F50005603F091570386E08083E0915403F091AB
:100F60005503808180618083E0915403F0915503A3
:100F7000808188608083E0915403F09155038081E3
:100F800080688083E0915403F091550380818F7DC8
:100F9000808360E089E30E94DD0361E08CE00E94D1
:100FA000DD0360E08BE00E94DD0362E08091E403FA
:100FB0000E94DD030E948D04605D774081099109E4
:100FC0006093E8037093E9038093EA039093EB0343
:100FD00087E38093F1037E012FEBE21A2EEFF20AF2
:100FE0005BE2252E51E1352E89E30E941904BC01F4
:100FF000990F880B990B0E94FE0E2AE038E240EA16
:101000005BE30E945D0F2B013C0120E030E04AE7EA
:1010100054E40E945D0FC35BDE4F688379838A834B
:101020009B83CD54D140A301920160E070E080EA3F
:1010300090E40E9435109B01AC01C35BDE4F6881D8
:1010400079818A819B81CD54D1400E94A2102B01CD
:101050003C0120E030E046E953E40E94F70E181608
:101060000CF0DCC020E030E046E953E4C301B201FB
:101070000E944311181654F420E030E84BEB54E47E
:10108000C301B2010E94F70E87FDCFC020E030E817
:101090004BEB54E4C301B2010E94431187FD0AC027
:1010A00020E030E44CE156E4C301B2010E94F70EA7
:1010B00087FDC2C020E030E44CE156E4C301B20138
:1010C0000E94431187FD0AC020E038EB48E857E44E
:1010D000C301B2010E94F70E87FDB5C020E038EBD6
:1010E00048E857E4C301B2010E94431187FD0AC0DA
:1010F00020E03CE742E159E4C301B2010E94F70E4F
:1011000087FDA8C020E03CE742E159E4C301B201F9
:101110000E94431187FD07C04DEC842E4CEC942EA9
:10112000A92C4DE3B42E80923E0390923F03A092EF
:101130004003B092410360E08CE00E94510383E0E1
:1011400090E00197F1F761E08CE00E94510383E2A7
:1011500090E00197F1F760E08CE00E94510360E0BD
:101160008BE00E94DD03E7E2F3E06491E1EEF2E060
:101170008491E82FF0E0EE0FFF1FE454FD4F8591BE
:10118000949100E412E42FE030E0462F0E9487069D
:10119000611571058105910529F06F5F7F4F8F4FB4
:1011A0009F4F9F700E94FC0E20E030E040E05FE324
:1011B0000E945D0F28E23EE74CE05DE30E945D0F78
:1011C00060933A0370933B0380933C0390933D03F9
:1011D00060ED77E080E090E00E945B040E948D0467
:1011E0000091E8031091E9032091EA033091EB03A9
:1011F0002B013C01401A510A620A730A93018201D1
:10120000003D17402105310560F58091F003811103
:10121000EAC060E070E080EC9FE717C1812C912C60
:101220003AE7A32E34E4B32E7ECF812C912C28E410
:10123000A22E22E4B22E77CF812C912C98ECA92EED
:1012400092E4B92E70CF812C912C80E2A82E81E4FB
:10125000B82E69CF812C912C00E8A02E0FE3B02E80
:1012600062CF6093E8037093E9038093EA0390935D
:10127000EB031092E3031092E2031092E103109249
:10128000E0031092DF0362E08091E4030E94DD033B
:1012900061E070E080E090E00E945B0461E080919A
:1012A000E4030E94DD0360E08091E4030E945103A7
:1012B0008091E5038551823010F5C1010197F1F766
:1012C00062E08091E4030E94DD038091F10390E0ED
:1012D0008230910538F0880F991F880F991F059764
:1012E0000197F1F7F89480E00E94E5016F3F7F4F8E
:1012F0008F4F9F4F59F41092F00378948ACF64E196
:1013000070E080E090E00E945B04DACF81E00E9410
:10131000E5016F3F7F4F8F4F9F4F69F3CE010196DD
:101320006C018C0180E00E94E501F801608371830B
:101330008283938381E00E94E501F80164837583D1
:1013400086839783085F1F4FE016F10659F778945C
:1013500090E080E0F6010081118122813381448197
:101360005581668177810F3FFFEF1F072F073F07EA
:1013700031F04F3FEFEF5E076E077E0719F41092D2
:10138000F00347CFFC01A3E0F595E795AA95E1F7B7
:10139000E152FC4FA081AA0F041715072607370753
:1013A00008F43AC2A0830196F8E0CF0ED11C88322F
:1013B000910581F64091E3032091DF038091E003E2
:1013C000280F3327331F8091E103280F311D8091AF
:1013D000E203820F932F911D99274817190679F67A
:1013E00081E08093F0038091E5038C3009F430C2F2
:1013F00008F014C28B3009F00CCF6091E10370E06B
:1014000090E080E00E94FC0E2B013C011091E20371
:1014100017FF0AC0AC019B0160E070E080E89FEB21
:101420000E9435102B013C011F70612F70E090E08D
:1014300080E00E94FE0E2DEC3CEC4CEC5DE30E9443
:101440005D0FA30192010E943610609336037093E2
:10145000370380933803909339030E941411162F99
:101460006093350387E30E9419049C01A8E8B3E167
:101470000E9426109B01AC016AE05695479537956E
:1014800027956A95D1F744275527E12FF0E0EE0F15
:10149000FF1FEA5FFD4FA081B1810E941B1043E254
:1014A000149F900111242B523D4F50E040E00E94C8
:1014B0005C11C90168EE73E00E9448117093340317
:1014C0006093330380912B0381110DC00E948D0422
:1014D00060932703709328038093290390932A0332
:1014E00081E080932B0380911F0381110DC00E9426
:1014F0008D0460931B0370931C0380931D039093D2
:101500001E0381E080931F030E948D040091270336
:10151000109128032091290330912A03601B710B3D
:10152000820B930B653171058105910508F47CC030
:101530000091190310911A0368018FEFC81AD80A95
:10154000D0921A03C092190386E30E941904000F77
:10155000111FF801E753FD4F9183808398E2C9166C
:10156000D10421F410921A03109219030091C902B8
:101570001091CA028091CB029091CC0208171907F2
:101580002CF0502F412F8C01852F942FEDECF2E0A1
:1015900029E1C22E23E0D22E412C512C320141915F
:1015A0005191401751070CF073C1012E000C220B12
:1015B000330B400E511E621E731E8A01CE16DF06CB
:1015C00071F7C301B2010E94FE0E20E030E048E155
:1015D00052E40E94A21020E030E040EA50E40E9471
:1015E0005D0F20E030EC4FE754E40E94A21020E0B1
:1015F00030E040E650E40E945D0F20E030E0A901B9
:101600000E9436106093C5027093C6028093C70291
:101610009093C8020E948D0460932703709328035F
:101620008093290390932A030E948D0400911B0349
:1016300010911C0320911D0330911E03601B710B40
:10164000820B930B613D77408105910508F4E1C061
:1016500040913E0350913F036091400370914103DC
:10166000CE0101960E9476056DE672E0C7010E94E8
:101670001A05BE016F5F7F4FC7010E94C2056AE76E
:1016800072E00E94AC050E94A104C7010E94D5052A
:10169000CE0101960E94D50540913A0350913B033B
:1016A00060913C0370913D03CE0101960E94760546
:1016B0006EE772E0C7010E941A05BE016F5F7F4F9F
:1016C000C7010E94C2056EE872E00E94AC050E944C
:1016D000A104C7010E94D505CE0101960E94D5053F
:1016E0001A8219821C821B821E821D8280EBF701E6
:1016F00080831182B701CE0101960E944B05409173
:101700003603509137036091380370913903C70154
:101710000E94760561E972E0CE01895B9E4F0E94CE
:101720001A05B701CE01895B9E4F0E94C205BE011A
:101730006F5F7F4F0E94C2056FE972E00E94AC05A7
:101740000E94A104CE01895B9E4F0E94D505C7016E
:101750000E94D505CE0101960E94D50580913303E4
:1017600090913403F7011182108213821282158244
:1017700014824AE0BE016F5F7F4F0E947C0CBE0165
:101780006F5F7F4FC7010E944B0561EA72E0CE0197
:1017900001960E941A05B701CE0101960E94C2056A
:1017A0006BEA72E00E94AC050E94A104CE01019692
:1017B0000E94D505C7010E94D5054091C5025091F0
:1017C000C6026091C7027091C802CE0101960E94C4
:1017D000760560EB72E0C7010E941A05BE016F5FDB
:1017E0007F4FC7010E94C2050E94A104C7010E9449
:1017F000D505CE0101960E94D5050E9499040E944C
:101800008D0460931B0370931C0380931D039093BE
:101810001E030E942003E8CBA160C4CD8551823015
:1018200008F0F7CC1091E103612F70E0762F662766
:1018300066277F778091E203682B90E080E00E942A
:10184000FC0E2DEC3CEC4CEC5DE30E945D0F1CC0EB
:101850001091E103612F70E090E080E00E94FC0EA7
:101860002B013C016091E2036F7070E090E080E03A
:101870000E94FE0E2DEC3CEC4CEC5DE30E945D0FF3
:10188000A30192010E94361017FFDFCD9058DDCDE5
:101890008417950754F4092E000CAA0BBB0B480EB5
:1018A000591E6A1E7B1ECA0189CE052E000C660BCE
:1018B000770B440E551E661E771E80CEEF920F9357
:1018C0001F93CF93DF93E80134E047FD34E1042E0A
:1018D000000C550B57FF03C0519541955109E32E5C
:1018E000022F242FAE010E94960CCE01DF91CF91E2
:1018F0001F910F91EF900895BB27FB015527AA2751
:10190000880F991FAA1FA41710F0A41B839550518C
:10191000B9F7A05DAA3308F0A95DA193009779F704
:10192000B111B1931192CB010C94E70E8F929F925B
:10193000AF92BF92CF92DF92EF92FF920F931F93DD
:10194000CF93DF9300D000D000D0CDB7DEB76A01CF
:10195000F22EB02E102FFBE3AF2EA01608F41BE3DF
:101960001F5F012F27E0AE014F5F5F4F0E940F0EF8
:10197000BC018981982F9970913009F44EC09BE287
:10198000E1FC04C09E2D9170E0FC49C05E2D5071B9
:10199000E82FE87083FF55C084E0911101C083E017
:1019A000EF2DE81B8F1508F0E0E0D6018E2F20E226
:1019B0005523C9F1992329F0D6019C93C6010196BC
:1019C0006C0196012D5F3F4FE2FE33C08EE4D601DD
:1019D0008C9391E411969C93119712968C93D90154
:1019E0008E2F90E281112AC0E20FF32FF11D108299
:1019F0008EEF9FEF29960FB6F894DEBF0FBECDBFD6
:101A0000DF91CF911F910F91FF90EF90DF90CF90DA
:101A1000BF90AF909F908F9008959DE2B7CF90E2D6
:101A2000B5CF2D9381508111FCCFCE0ED11CE0E0BB
:101A3000C1CF8EE6D6018C9391E6CCCF9D93815099
:101A4000D1CF482F447082FF3DC084E0911101C086
:101A500083E08F1510F4EF2DE81BD6018E2F20E2C6
:101A6000552309F1992329F0D6019C93C6010196CB
:101A70006C0196012D5F3F4FE2FE1BC089E4D60149
:101A80008C938EE411968C93119786E412968C9326
:101A9000D9018E2F90E2882309F4A6CF9D9381501F
:101AA000FACF2D9381508111FCCFCE0ED11CE0E0F6
:101AB000D9CF89E6D6018C938EE611968C93119737
:101AC00086E6E4CF9B0177FF02C030E020E0A1E092
:101AD000B0E0911102C0B0E0A0E0F9013196AE0F84
:101AE000BF1F8B2C912CBB2009F461C05401EFEF78
:101AF000AE1ABE0AAA0DBB1DFA161B0619F014F089
:101B00004F2D4A1B511188C0E3FC59C07601A42F08
:101B1000B0E2A1114FC0C40ED11C992309F45BC0DF
:101B200040E0D6011196F60190836D01552309F42A
:101B300048C0012F060F9A81582F507184FF03C0AF
:101B4000913309F4015010160CF047C0093008F029
:101B500008E0EEE2FE2E5B01A01AB1088501919427
:101B6000819491082F3F320729F4D601FC92F601A7
:101B700031966F016217730794F1021713077CF512
:101B8000DB01A21BB30BAA24A394B12CAC0EBD1E87
:101B9000AA0DBB1D11968C9121503109D6011196C9
:101BA00028153905F4F0F60180836D01DBCFB12CE7
:101BB000A12CA0CFF701B1937F01A150AACF911121
:101BC000B0CFD601942F50E302C05D939150911194
:101BD000FCCFC40ED11C40E0ACCF01E0BACF80E313
:101BE000DBCF6217730731F4963388F4953311F421
:101BF000552369F0F6018083FD01842F90E2811165
:101C000008C0A40FB11D1C9290E080E0F3CE81E3E8
:101C1000F1CF91938150F3CF911183CF8ACF2830A8
:101C200008F027E03327DA01990F311D87FD916015
:101C300000966105710539F432602E5F3D9330E303
:101C40002A95E1F708959F3F30F0803871056105CE
:101C500009F03C5F3C5F3D93913008F08068911D36
:101C6000DF93CF931F930F93FF92EF92192F987FDB
:101C70009695E92F96959695E90FFF27EE55FE4F1D
:101C800099273327EE24FF24A701E7010590089444
:101C9000079428F4360FE71EF81E491F511D660FE2
:101CA000771F881F991F0694A1F70590079428F4C1
:101CB000E70EF81E491F561FC11D770F881F991F79
:101CC000661F0694A1F70590079428F4F80E491FA3
:101CD000561FC71FD11D880F991F661F771F0694B7
:101CE000A1F70590079420F4490F561FC71FD81F6E
:101CF000990F661F771F881F0694A9F78491109586
:101D0000177041F0D695C79557954795F794E79486
:101D10001A95C1F7E8E4F1E06894159015913591B2
:101D20006591959105907FE27395E118F10A430B57
:101D3000560BC90BD009C0F7E10CF11E431F561F0B
:101D4000C91FD01D7EF4703311F48A95E6CFE89454
:101D5000015030F0080F0AF40027021708F4202F72
:101D60002395022F7A3328F079E37D932A95E9F7BA
:101D700010C07D932A9589F60694979567953795B7
:101D800017951794E118F10A430B560BC90BD009AC
:101D900098F023957E9173957A3308F070E37C93E5
:101DA0002013B8F77E9170617D9330F0839571E3D5
:101DB0007D9370E32A95E1F71124EF90FF900F9146
:101DC0001F91CF91DF91992787FD90950895DC01B0
:101DD000FC01672F71917723E1F7329704C07C9162
:101DE0006D9370836291AE17BF07C8F308950E9488
:101DF000390F08F481E00895E89409C097FB3EF498
:101E000090958095709561957F4F8F4F9F4F992347
:101E1000A9F0F92F96E9BB279395F69587957795C5
:101E20006795B795F111F8CFFAF4BB0F11F460FF85
:101E30001BC06F5F7F4F8F4F9F4F16C0882311F0DD
:101E400096E911C0772321F09EE8872F762F05C0F1
:101E5000662371F096E8862F70E060E02AF09A958C
:101E6000660F771F881FDAF7880F9695879597F981
:101E70000895990F0008550FAA0BE0E8FEEF16161B
:101E80001706E807F907C0F012161306E407F5076E
:101E900098F0621B730B840B950B39F40A2661F0E2
:101EA000232B242B252B21F408950A2609F4A14085
:101EB000A6958FEF811D811D08950E94700F0C94CF
:101EC000E10F0E94D30F38F00E94DA0F20F0952323
:101ED00011F00C94CA0F0C94D00F11240C9415100F
:101EE0000E94F20F70F3959FC1F3950F50E0551FBC
:101EF000629FF001729FBB27F00DB11D639FAA275F
:101F0000F00DB11DAA1F649F6627B00DA11D661FAD
:101F1000829F2227B00DA11D621F739FB00DA11DCE
:101F2000621F839FA00D611D221F749F3327A00D88
:101F3000611D231F849F600D211D822F762F6A2F24
:101F400011249F5750409AF0F1F088234AF0EE0F89
:101F5000FF1FBB1F661F771F881F91505040A9F7B6
:101F60009E3F510580F00C94CA0F0C9415105F3FF2
:101F7000E4F3983ED4F3869577956795B795F795F2
:101F8000E7959F5FC1F7FE2B880F911D969587956A
:101F900097F9089597F99F6780E870E060E00895E9
:101FA0009FEF80EC089500240A9416161706180671
:101FB0000906089500240A9412161306140605064D
:101FC0000895092E0394000C11F4882352F0BB0FDE
:101FD00040F4BF2B11F460FF04C06F5F7F4F8F4F41
:101FE0009F4F089557FD9058440F551F59F05F3F7C
:101FF00071F04795880F97FB991F61F09F3F79F02B
:1020000087950895121613061406551FF2CF4695AC
:10201000F1DF08C0161617061806991FF1CF86952E
:102020007105610508940895E894BB276627772712
:10203000CB0197F908950E942610A59F900DB49F9B
:10204000900DA49F800D911D11240895A29FB001B1
:10205000B39FC001A39F700D811D1124911DB29FDC
:10206000700D811D1124911D08955058BB27AA277A
:102070000E944D100C94E10F0E94D30F38F00E9483
:10208000DA0F20F039F49F3F19F426F40C94D00FA6
:102090000EF4E095E7FB0C94CA0FE92F0E94F20FB3
:1020A00058F3BA17620773078407950720F079F48D
:1020B000A6F50C9414100EF4E0950B2EBA2FA02D5B
:1020C0000B01B90190010C01CA01A0011124FF27E5
:1020D000591B99F0593F50F4503E68F11A16F040E0
:1020E000A22F232F342F4427585FF3CF46953795DF
:1020F0002795A795F0405395C9F77EF41F16BA0BA4
:10210000620B730B840BBAF09150A1F0FF0FBB1F51
:10211000661F771F881FC2F70EC0BA0F621F731F9A
:10212000841F48F4879577956795B795F7959E3FF7
:1021300008F0B0CF9395880F08F09927EE0F979588
:10214000879508950E94B6100C94E10F0E94DA0F53
:1021500058F00E94D30F40F029F45F3F29F00C940F
:10216000CA0F51110C9415100C94D00F0E94F20F4D
:1021700068F39923B1F3552391F3951B550BBB27B6
:10218000AA2762177307840738F09F5F5F4F220FFB
:10219000331F441FAA1FA9F335D00E2E3AF0E0E8F2
:1021A00032D091505040E695001CCAF72BD0FE2F3C
:1021B00029D0660F771F881FBB1F261737074807D0
:1021C000AB07B0E809F0BB0B802DBF01FF27935888
:1021D0005F4F3AF09E3F510578F00C94CA0F0C9473
:1021E00015105F3FE4F3983ED4F386957795679595
:1021F000B795F7959F5FC9F7880F911D96958795BD
:1022000097F90895E1E0660F771F881FBB1F6217DB
:1022100073078407BA0720F0621B730B840BBA0B99
:10222000EE1F88F7E09508950E94FA0F88F09F57F7
:1022300098F0B92F9927B751B0F0E1F0660F771FEA
:10224000881F991F1AF0BA95C9F714C0B13091F0E0
:102250000E941410B1E008950C941410672F782F89
:102260008827B85F39F0B93FCCF3869577956795A5
:10227000B395D9F73EF490958095709561957F4F11
:102280008F4F9F4F08950E94390F08F48FEF0895E4
:1022900097FB072E16F4009407D077FD09D00E9413
:1022A000861107FC05D03EF4909581959F4F0895C7
:1022B000709561957F4F0895A1E21A2EAA1BBB1B52
:1022C000FD010DC0AA1FBB1FEE1FFF1FA217B30702
:1022D000E407F50720F0A21BB30BE40BF50B661F18
:1022E000771F881F991F1A9469F7609570958095DC
:1022F00090959B01AC01BD01CF010895EE0FFF1F2A
:10230000881F8BBF0790F691E02D1994AA1BBB1B69
:1023100051E107C0AA1FBB1FA617B70710F0A61BE5
:10232000B70B881F991F5A95A9F780959095BC0106
:10233000CD0108950F931F93CF93DF9382309105C2
:1023400010F482E090E0E091F403F091F50330E0C6
:1023500020E0B0E0A0E0309799F42115310509F4B0
:102360004AC0281B390B24303105D8F58A819B815E
:102370006115710589F1FB0193838283FE0111C010
:10238000408151810281138148175907E0F04817B5
:10239000590799F4109761F012960C9312971396BF
:1023A0001C933296CF01DF91CF911F910F91089529
:1023B0000093F4031093F503F4CF2115310551F088
:1023C0004217530738F0A901DB019A01BD01DF0173
:1023D000F801C1CFEF01F9CF9093F5038093F40397
:1023E000CDCFFE01E20FF31F81939193225031096B
:1023F00039832883D7CF2091F2033091F303232B25
:1024000041F420910202309103023093F3032093B0
:10241000F20320910002309101022115310541F4AF
:102420002DB73EB74091040250910502241B350B95
:10243000E091F203F091F303E217F307A0F42E1BEF
:102440003F0B2817390778F0AC014E5F5F4F241718
:10245000350748F04E0F5F1F5093F3034093F2038C
:10246000819391939FCFF0E0E0E09CCFCF93DF93F7
:102470000097E9F0FC01329713821282A091F403D5
:10248000B091F503ED0130E020E01097A1F4208138
:102490003181820F931F2091F2033091F3032817AB
:1024A000390709F061C0F093F303E093F203DF9181
:1024B000CF910895EA01CE17DF07E8F54A815B81E5
:1024C0009E0141155105B1F7E901FB83EA8349916A
:1024D0005991C40FD51FEC17FD0761F480819181DC
:1024E0000296840F951FE9019983888382819381E5
:1024F0009B838A83F0E0E0E012968D919C91139784
:102500000097B9F52D913C911197CD010296820F5C
:10251000931F2091F2033091F3032817390739F6FE
:10252000309751F51092F5031092F403B093F30332
:10253000A093F203BCCFD383C28340815181840F27
:10254000951FC817D90761F44E5F5F4F8881998145
:10255000480F591F518340838A819B8193838283D3
:102560002115310509F0B0CFF093F503E093F403A2
:102570009ECFFD01DC01C0CF13821282D7CF4F92D4
:102580005F926F927F928F929F92AF92BF92CF9203
:10259000DF92EF92FF920F931F93CF93DF938C0103
:1025A000009799F4CB01DF91CF911F910F91FF908C
:1025B000EF90DF90CF90BF90AF909F908F907F90E3
:1025C0006F905F904F900C949A11FC01E60FF71FEB
:1025D0009C0122503109E217F30708F4AEC0D9017B
:1025E000CD91DC911197C617D70720F1C530D105E1
:1025F00078F0CE0104978617970750F0C61BD70BCB
:102600002297C193D1936D937C93CF010E94361290
:10261000C801DF91CF911F910F91FF90EF90DF9054
:10262000CF90BF90AF909F908F907F906F905F9072
:102630004F9008955B01AC1ABD0A4C018C0E9D1E93
:10264000A091F403B091F503512C412CF12CE12C15
:10265000109731F58091F2039091F3038815990555
:1026600009F05CC04616570608F058C08091000279
:1026700090910102009741F48DB79EB740910402FA
:1026800050910502841B950BE817F90708F055C017
:10269000F093F303E093F203F90171836083B8CF01
:1026A0008D919C91119712966C90129713967C9035
:1026B0001397A815B90559F56C0142E0C40ED11C59
:1026C000CA14DB0420F1AC014A195B09DA01129645
:1026D000159780F06282738251834083D9016D9394
:1026E0007C93E114F10471F0D7011396FC93EE93FF
:1026F00012978ECF22968C0F9D1FF90191838083B4
:10270000F301EFCFF093F503E093F40381CF481684
:10271000590608F42C017D01D3019ACFCB010E9408
:102720009A117C01009749F0AE01B8010E94A013F4
:10273000C8010E94361287016BCF10E000E068CF1D
:10274000FB01DC0102C001900D9241505040D8F7CE
:102750000895FB01DC0101900D920020E1F708953E
:04276000F894FFCF1B
:102764000000F60380007C388C37FC35803422333B
:10277400C43184304E2F222E0A2DFC2B022B122A18
:1027840022293C2860278426BC25F4243624782377
:10279400C4221A227A21DA203A20AE1F181F8C1E76
:1027A4000A1E881D061D841C0C1C9E1B261BB81AA1
:1027B4004A1AE61982190A1900000000B3021D0220
:1027C4004A0200037B0259026D020D0A006C756D0A
:1027D400696E6F736964616409006C7578004E6991
:1027E40076656C2064656C20616775612000636D9B
:1027F4000054656D70657261747572613A090043C5
:10280400004F786967656E6F3A09006D672F4C0059
:0C28140070482076616C75653A09000080
:00000001FF
